:10000000F8FF0020110400007F2300007F23000080
:100010007F2300007F2300007F2300007F23000058
:100020007F2300007F2300007F2300007F23000048
:100030007F2300007F2300007F2300007F23000038
:100040007F2300007F2300007F2300007F23000028
:10040000FFFFFFFFFFFFFFFFFFFFFFFFFEFFFFFFFD
:1004100062B60AF0E3F8FEE710B500200400E4B28B
:10042000082C08DA0022012114F14000C0B201F0CA
:1004300009FE641CF3E700220121492001F002FEBD
:10044000012201214A2001F0FDFD012201214B2062
:1004500001F0F8FD002201214C2001F0F3FD002203
:1004600001214D2001F0EEFD4FF4A071492001F073
:100470007DFE4FF4A0714A2001F078FE4FF4A07188
:100480004B2001F073FE4FF4A0714C2001F06EFE82
:100490000020DFF8241D08600120DFF81C1D086023
:1004A0004FF4FA7001F0D5FE0120DFF8101D08604E
:1004B0000020DFF80C1D08600020DFF8081D086030
:1004C0001120DFF8041D08700020DFF8001D08600F
:1004D0000120DFF8F81C08600120DFF8E81C086044
:1004E000782001F0B6FE0120DFF8D01C0860002063
:1004F000DFF8CC1C08600020DFF8C81C0860B120C1
:10050000DFF8C41C08700020DFF8C01C0860012060
:10051000DFF8B81C08600120DFF8A81C0860012083
:10052000DFF8981C08600120DFF8941C08600020A8
:10053000DFF8901C08600520DFF88C1C0870002094
:10054000DFF8881C08600120DFF8801C08600120AB
:10055000DFF8701C08600120DFF8601C08600120D3
:10056000DFF85C1C08600020DFF8581C08603A20A7
:10057000DFF8541C08700020DFF8501C08600120D0
:10058000DFF8481C08600120DFF8381C08600120F3
:10059000DFF8281C08600120DFF8241C0860002018
:1005A000DFF8201C08603A20DFF81C1C08700020CF
:1005B000DFF8181C08600120DFF8101C086001201B
:1005C000DFF8001C08600120DFF8F01B0860002045
:1005D000DFF8EC1B08600020DFF8E81B0860B220A1
:1005E000DFF8E41B08700020DFF8E01B0860012042
:1005F000DFF8D81B08600120DFF8C81B0860012065
:10060000DFF8B81B08600120DFF8B41B0860002089
:10061000DFF8B01B08600520DFF8AC1B0870002075
:10062000DFF8A81B08600120DFF8A01B086001208C
:10063000DFF8901B08600120DFF8801B08600120B4
:10064000DFF87C1B08600020DFF8781B08603A2088
:10065000DFF8741B08700020DFF8701B08600120B1
:10066000DFF8681B08600120DFF8581B08600120D4
:10067000DFF8481B08600120DFF8441B08600020F9
:10068000DFF8401B08603A20DFF83C1B08700020B0
:10069000DFF8381B08600120DFF8301B08600120FC
:1006A000DFF8201B08600120DFF8101B0860002025
:1006B000DFF80C1B08600020DFF8081B0860B3207F
:1006C000DFF8041B08700020DFF8001B0860012021
:1006D000DFF8F81A08600120DFF8E81A0860012046
:1006E000DFF8D81A08600120DFF8D41A086000206B
:1006F000DFF8D01A08600520DFF8CC1A0870002057
:10070000DFF8C81A08600120DFF8C01A086001206D
:10071000DFF8B01A08600120DFF8A01A0860012095
:10072000DFF89C1A08600020DFF8981A08603A2069
:10073000DFF8941A08700020DFF8901A0860012092
:10074000DFF8881A08600120DFF8781A08600120B5
:10075000DFF8681A08600120DFF8641A08600020DA
:10076000DFF8601A08603A20DFF85C1A0870002091
:10077000DFF8581A08600120DFF8501A08600120DD
:10078000DFF8401A08600120DFF8301A0860012005
:10079000DFF82C1A08600020DFF8281A086005200E
:1007A000DFF8241A08700020DFF8201A0860012002
:1007B000DFF8181A08600120DFF8081A0860012025
:1007C000DFF8F81908600120DFF8F419086000204C
:1007D000DFF8F01908603A20DFF8EC190870002003
:1007E000DFF8E81908600120DFF8E019086001204F
:1007F000DFF8D01908600120DFF8C0190860012077
:10080000DFF8BC1908600020DFF8B81908603A204A
:10081000DFF8B41908700020DFF8B0190860012073
:10082000DFF8A81908600120DFF898190860012096
:10083000DFF8881908600020DFF8841908600020BC
:10084000DFF880190860B420DFF87C1908700020F8
:10085000DFF8781908600120DFF8701908600120BE
:10086000DFF8601908600120DFF8501908600120E6
:10087000DFF84C1908600020DFF8481908600720ED
:10088000DFF8441908700020DFF8401908600120E3
:10089000DFF8381908600120DFF828190860012006
:1008A000DFF8181908600020DFF81419086000202C
:1008B000DFF810190860C020DFF80C19087000205C
:1008C000DFF8081908600120DFF80019086001202E
:1008D000DFF8F01808600120DFF8E0180860012058
:1008E000DFF8DC1808600020DFF8D818086028203E
:1008F000DFF8D41808700020DFF8D0180860012055
:10090000DFF8C81808600120DFF8B8180860012077
:10091000DFF8A81808600120DFF8A418086000209C
:10092000DFF8A01808600820DFF89C180870002085
:10093000DFF8981808600120DFF89018086001209F
:10094000DFF8801808600120DFF8701808600120C7
:10095000DFF86C1808600020DFF868180860842051
:10096000DFF8641808700020DFF8601808600120C4
:10097000DFF8581808600120DFF8481808600120E7
:10098000DFF8381808600020DFF83418086000200D
:10099000DFF830180860C120DFF82C18087000203C
:1009A000DFF8281808600120DFF82018086001200F
:1009B000DFF8101808600120DFF800180860012037
:1009C000DFF8FC1708600020DFF8F8170860C02087
:1009D000DFF8F41708700020DFF8F0170860012036
:1009E000DFF8E81708600120DFF8D8170860012059
:1009F000DFF8C81708600020DFF8C417086000207F
:100A0000DFF8C0170860C220DFF8BC1708700020AC
:100A1000DFF8B81708600120DFF8B0170860012080
:100A2000DFF8A01708600120DFF8901708600120A8
:100A3000DFF88C1708600020DFF8881708600C20AA
:100A4000DFF8841708700020DFF8801708600120A5
:100A5000DFF8781708600120DFF8681708600120C8
:100A6000DFF8581708600120DFF8541708600020ED
:100A7000DFF8501708600020DFF84C1708700020DE
:100A8000DFF8481708600120DFF8401708600120F0
:100A9000DFF8301708600120DFF820170860002019
:100AA000DFF81C1708600020DFF818170860C32063
:100AB000DFF8141708700020DFF810170860012015
:100AC000DFF8081708600120DFF8F8160860012039
:100AD000DFF8E81608600120DFF8E416086000205F
:100AE000DFF8E01608608C20DFF8DC1608700020C4
:100AF000DFF8D81608600120DFF8D0160860012062
:100B0000DFF8C01608600120DFF8B0160860012089
:100B1000DFF8AC1608600020DFF8A81608602A206D
:100B2000DFF8A41608700020DFF8A0160860012086
:100B3000DFF8981608600120DFF8881608600120A9
:100B4000DFF8781608600020DFF8741608600020CF
:100B5000DFF870160860C420DFF86C1608700020FB
:100B6000DFF8681608600120DFF8601608600120D1
:100B7000DFF8501608600120DFF8401608600120F9
:100B8000DFF83C1608600020DFF8381608608A207D
:100B9000DFF8341608700020DFF8301608600120F6
:100BA000DFF8281608600120DFF818160860012019
:100BB000DFF8081608600120DFF80416086000203E
:100BC000DFF800160860EE20DFF8FC150870002042
:100BD000DFF8F81508600120DFF8F0150860012043
:100BE000DFF8E01508600120DFF8D015086000206C
:100BF000DFF8CC1508600020DFF8C8150860C520B4
:100C0000DFF8C41508700020DFF8C0150860012067
:100C1000DFF8B81508600120DFF8A815086001208A
:100C2000DFF8981508600120DFF8941508600020AF
:100C3000DFF8901508600C20DFF88C150870002094
:100C4000DFF8881508600120DFF8801508600120B2
:100C5000DFF8701508600120DFF8601508600020DB
:100C6000DFF85C1508600020DFF858150860E02008
:100C7000DFF8541508700020DFF8501508600120D7
:100C8000DFF8481508600120DFF8381508600120FA
:100C9000DFF8281508600120DFF82415086000201F
:100CA000DFF8201508600520DFF81C15087000200B
:100CB000DFF8181508600120DFF810150860012022
:100CC000DFF8001508600120DFF8F014086001204B
:100CD000DFF8EC1408600020DFF8E81408601A2040
:100CE000DFF8E41408700020DFF8E0140860012049
:100CF000DFF8D81408600120DFF8C814086001206C
:100D0000DFF8B81408600120DFF8B4140860002090
:100D1000DFF8B01408600C20DFF8AC140870002075
:100D2000DFF8A81408600120DFF8A0140860012093
:100D3000DFF8901408600120DFF8801408600120BB
:100D4000DFF87C1408600020DFF8781408600E20BB
:100D5000DFF8741408700020DFF8701408600120B8
:100D6000DFF8681408600120DFF8581408600120DB
:100D7000DFF8481408600120DFF844140860002000
:100D8000DFF8401408603A20DFF83C1408700020B7
:100D9000DFF8381408600120DFF830140860012003
:100DA000DFF8201408600120DFF81014086001202B
:100DB000DFF80C1408600020DFF808140860342005
:100DC000DFF8041408700020DFF800140860012028
:100DD000DFF8F81308600120DFF8E813086001204D
:100DE000DFF8D81308600120DFF8D4130860002072
:100DF000DFF8D01308602D20DFF8CC130870002036
:100E0000DFF8C81308600120DFF8C0130860012074
:100E1000DFF8B01308600120DFF8A013086001209C
:100E2000DFF89C1308600020DFF8981308602F207B
:100E3000DFF8941308700020DFF890130860012099
:100E4000DFF8881308600120DFF8781308600120BC
:100E5000DFF8681308600120DFF8641308600020E1
:100E6000DFF8601308602D20DFF85C1308700020A5
:100E7000DFF8581308600120DFF8501308600120E4
:100E8000DFF8401308600120DFF83013086001200C
:100E9000DFF82C1308600020DFF8281308602A20F0
:100EA000DFF8241308700020DFF820130860012009
:100EB000DFF8181308600120DFF80813086001202C
:100EC000DFF8F81208600120DFF8F4120860002053
:100ED000DFF8F01208602F20BB4908700020BB49E2
:100EE00008600120B94908600120B6490860012066
:100EF000B24908600120B24908600020B149086089
:100F00003C20B14908700020B04908600120AF4979
:100F100008600120AB4908600120A8490860012051
:100F2000A74908600020A74908600020A64908706A
:100F30000020A64908600120A44908600120A149B9
:100F4000086001209D49086001209D49086000203B
:100F50009C49086001209C49087000209B4908605A
:100F600001209A49086001209649086001209349B0
:100F70000860012092490860002092490860022020
:100F80009149087000209149086001208F4908604C
:100F900001208C49086001208849086001208849A7
:100FA00008600020874908601020874908700020E9
:100FB0008649086001208549086001208149086050
:100FC00001207E49086000207D49086000207D499D
:100FD0000860E1207C49087000207C4908600120FD
:100FE0007A49086001207749086001207349086048
:100FF000012073490860002072490860042072498A
:1010000008700020714908600120704908600120C3
:101010006C4908600120694908600120684908603E
:101020000020684908601B20674908700020674954
:1010300008600120654908600120624908600120BC
:101040005E49086001205E49086000205D49086033
:101050000D205D49087000205C49086001205B4953
:1010600008600120574908600120544908600120A8
:10107000534908600020534908600E205249087007
:1010800000205249086001205049086001204D4964
:101090000860012049490860012049490860002092
:1010A000484908602D2048490870002047490860D9
:1010B00001204649086001204249086001203F495B
:1010C000086001203E49086000203E490860292050
:1010D0003D49087000203D49086001203B490860F7
:1010E0000120384908600120344908600120344952
:1010F000086000203349086024203349087000202C
:101100003249086001203149086001202D490860FA
:1011100001202A4908600120294908600020294946
:10112000086029202849087000202849086001200B
:101130002649086001202349086001201F490860F2
:1011400001201F49086000201E49086028201E4910
:10115000087000201D49086001201C49086001201A
:1011600018490860012015490860012014490860E9
:1011700000201449086026201349087000201349F4
:10118000086001201149086001200E490860012013
:101190000A49086001200A490860002009490860DE
:1011A00031200949087000200849086001200749DA
:1011B0000860012003490BE03410FE432810FE4371
:1011C0003010FE432C10FE4380F00F402410FE43ED
:1011D00008600120DFF80C1C08600120DFF8081C03
:1011E00008600020DFF8041C08603B20DFF8001CCA
:1011F00008700020DFF8FC1B08600120DFF8F41BFA
:1012000008600120DFF8E41B08600120DFF8D41B30
:1012100008600120DFF8D01B08600020DFF8CC1B3D
:1012200008600020DFF8C81B08700020DFF8C41B2E
:1012300008600120DFF8BC1B08600120DFF8AC1B50
:1012400008600120DFF89C1B08600120DFF8981B74
:1012500008600020DFF8941B08600020DFF8901B76
:1012600008700020DFF88C1B08600120DFF8841B69
:1012700008600120DFF8741B08600120DFF8641BA0
:1012800008600120DFF8601B08600020DFF85C1BAD
:1012900008600320DFF8581B08700020DFF8541B9B
:1012A00008600120DFF84C1B08600120DFF83C1BC0
:1012B00008600120DFF82C1B08600120DFF8281BE4
:1012C00008600020DFF8241B08601220DFF8201BD4
:1012D00008700020DFF81C1B08600120DFF8141BD9
:1012E00008600120DFF8041B08600120DFF8F41A11
:1012F00008600020DFF8F01A08600020DFF8EC1A20
:1013000008603A20DFF8E81A08700020DFF8E41AD5
:1013100008600120DFF8DC1A08600120DFF8CC1A31
:1013200008600120DFF8BC1A08600120DFF8B81A55
:1013300008600020DFF8B41A08600520DFF8B01A52
:1013400008700020DFF8AC1A08600120DFF8A41A4A
:1013500008600120DFF8941A08600120DFF8841A81
:1013600008600020DFF8801A08600020DFF87C1A8F
:1013700008602920DFF8781A08700020DFF8741A56
:1013800008600120DFF86C1A08600120DFF85C1AA1
:1013900008600120DFF84C1A08600020DFF8481AC6
:1013A00008600020DFF8441A08602C20DFF8401A9B
:1013B00008700020DFF83C1A08600120DFF8341ABA
:1013C00008600120DFF8241A0860DFF8540C007868
:1013D00000F001F810BD10B50400E4B2042C04DBE9
:1013E000C821DFF8400C00F060FFDFF8340C047017
:1013F000E4B2002C09D0022C00F0B982C0F05E816A
:10140000032C00F0EA8300F0EBBC0120DFF8D419D4
:1014100008600020DFF8D01908600020DFF8CC1940
:1014200008603620DFF8C81908700020DFF8C419FA
:1014300008600120DFF8BC1908600120DFF8AC1952
:1014400008600120DFF89C1908600120DFF8981976
:1014500008600020DFF894190860C820DFF89019B0
:1014600008700020DFF88C1908600120DFF884196B
:1014700008600120DFF8741908600120DFF86419A2
:1014800008600020DFF8601908600020DFF85C19B0
:1014900008602A20DFF8581908700020DFF8541976
:1014A00008600120DFF84C1908600120DFF83C19C2
:1014B00008600120DFF82C1908600120DFF82819E6
:1014C00008600020DFF8241908600020DFF82019E8
:1014D00008700020DFF81C1908600120DFF81419DB
:1014E00008600120DFF8041908600120DFF8F41813
:1014F00008600120DFF8F01808600020DFF8EC1821
:1015000008600220DFF8E81808700020DFF8E4180F
:1015100008600120DFF8DC1808600120DFF8CC1833
:1015200008600120DFF8BC1808600120DFF8B81857
:1015300008600020DFF8B41808600020DFF8B01859
:1015400008700020DFF8AC1808600120DFF8A4184C
:1015500008600120DFF8941808600120DFF8841883
:1015600008600120DFF8801808600020DFF87C1890
:1015700008608120DFF8781808700020DFF8741800
:1015800008600120DFF86C1808600120DFF85C18A3
:1015900008600120DFF84C1808600020DFF84818C8
:1015A00008600020DFF8441808602B20DFF840189E
:1015B00008700020DFF83C1808600120DFF83418BC
:1015C00008600120DFF8241808600120DFF81418F3
:1015D00008600120DFF8101808600020DFF80C1800
:1015E00008600020DFF8081808700020DFF80418F1
:1015F00008600120DFF8FC1708600120DFF8EC1715
:1016000008600120DFF8DC1708600120DFF8D81738
:1016100008600020DFF8D41708600320DFF8D01737
:1016200008700020DFF8CC1708600120DFF8C4172D
:1016300008600120DFF8B41708600120DFF8A41764
:1016400008600120DFF8A01708600020DFF89C1771
:1016500008600020DFF8981708700020DFF8941762
:1016600008600120DFF88C1708600120DFF87C1784
:1016700008600120DFF86C1708600120DFF86817A8
:1016800008600020DFF8641708608220DFF8601728
:1016900008700020DFF85C1708600120DFF854179D
:1016A00008600120DFF8441708608020DFF878190F
:1016B00008808020DFF87419088091E30120DFF8AA
:1016C000241708600020DFF8201708600020DFF8EA
:1016D0001C1708603620DFF8181708700020DFF8A4
:1016E000141708600120DFF80C1708600120DFF8EC
:1016F000FC1608600120DFF8EC1608600120DFF816
:10170000E81608600020DFF8E4160860A820DFF87B
:10171000E01608700020DFF8DC1608600120DFF812
:10172000D41608600120DFF8C41608600120DFF835
:10173000B41608600020DFF8B01608600020DFF85B
:10174000AC1608602A20DFF8A81608700020DFF821
:10175000A41608600120DFF89C1608600120DFF85D
:101760008C1608600120DFF87C1608600120DFF885
:10177000781608600020DFF8741608600020DFF893
:10178000701608700020DFF86C1608600120DFF882
:10179000641608600120DFF8541608600120DFF8A5
:1017A000441608600120DFF8401608600020DFF8CA
:1017B0003C1608600320DFF8381608700020DFF8B8
:1017C000341608600120DFF82C1608600120DFF8CD
:1017D0001C1608600120DFF80C1608600120DFF8F5
:1017E000081608600020DFF8041608600020DFF803
:1017F000001608700020DFF8FC1508600120DFF8F3
:10180000F41508600120DFF8E41508600120DFF816
:10181000D41508600120DFF8D01508600020DFF83B
:10182000CC1508608220DFF8C81508700020DFF8AA
:10183000C41508600120DFF8BC1508600120DFF83E
:10184000AC1508600120DFF89C1508600020DFF867
:10185000981508600020DFF8941508602B20DFF849
:10186000901508700020DFF88C1508600120DFF863
:10187000841508600120DFF8741508600120DFF886
:10188000641508600120DFF8601508600020DFF8AB
:101890005C1508600020DFF8581508700020DFF89C
:1018A000541508600120DFF84C1508600120DFF8AE
:1018B0003C1508600120DFF82C1508600120DFF8D6
:1018C000281508600020DFF8241508600220DFF8E2
:1018D000201508700020DFF81C1508600120DFF8D3
:1018E000141508600120DFF8041508600120DFF8F6
:1018F000F41408600120DFF8F01408600020DFF81D
:10190000EC1408600020DFF8E81408700020DFF80D
:10191000E41408600120DFF8DC1408600120DFF81F
:10192000CC1408600120DFF8BC1408600120DFF847
:10193000B81408600020DFF8B41408608120DFF8D4
:10194000B01408700020DFF8AC1408600120DFF844
:10195000A41408600120DFF8941408608020DFF8E8
:10196000C81608808020DFF8C416088038E20120FD
:10197000DFF8701408600020DFF86C1408600020A5
:10198000DFF8681408603620DFF86414087000205F
:10199000DFF8601408600120DFF8581408600120A7
:1019A000DFF8481408600120DFF8381408600120CF
:1019B000DFF8341408600020DFF8301408600820D5
:1019C000DFF82C1408700020DFF8281408600120CC
:1019D000DFF8201408600120DFF8101408600120EF
:1019E000DFF8001408600020DFF8FC130860002016
:1019F000DFF8F81308602A20DFF8F41308700020DD
:101A0000DFF8F01308600120DFF8E8130860012018
:101A1000DFF8D81308600120DFF8C8130860012040
:101A2000DFF8C41308600020DFF8C013086000204E
:101A3000DFF8BC1308700020DFF8B813086001203D
:101A4000DFF8B01308600120DFF8A0130860012060
:101A5000DFF8901308600120DFF88C130860002085
:101A6000DFF8881308600220DFF884130870002074
:101A7000DFF8801308600120DFF878130860012088
:101A8000DFF8681308600120DFF8581308600120B0
:101A9000DFF8541308600020DFF8501308600020BE
:101AA000DFF84C1308700020DFF8481308600120AD
:101AB000DFF8401308600120DFF8301308600120D0
:101AC000DFF8201308600120DFF81C1308600020F5
:101AD000DFF8181308608120DFF814130870002065
:101AE000DFF8101308600120DFF8081308600120F8
:101AF000DFF8F81208600120BA4908600020BA49EE
:101B000008600020B94908602B20B94908700020FE
:101B1000B84908600120B74908600120B34908604E
:101B20000120B04908600120AF4908600020AF499A
:101B300008600020AE4908700020AE49086001200E
:101B4000AC4908600120A94908600120A549086046
:101B50000120A54908600020A44908600320A44989
:101B600008700020A34908600120A24908600120F4
:101B70009E49086001209B49086001209A4908603D
:101B800000209A490860002099490870002099496E
:101B900008600120974908600120944908600120ED
:101BA0009049086001209049086000208F49086032
:101BB00082208F49087000208E49086001208D49DD
:101BC00008600120894908608020DFF85C140880E3
:101BD0008020DFF85814088002E101208149086064
:101BE0000020814908600020804908603620804933
:101BF000087000207F49086001207E4908600120AC
:101C00007A49086001207749086001207649086018
:101C100000207649086068207549087000207549E1
:101C200008600120734908600120704908600120A4
:101C30006C49086000206C49086000206B4908600E
:101C40002A206B49087000206A4908600120694910
:101C50000860012065490860012062490860012090
:101C600061490860002061490860002060490870EF
:101C700000206049086001205E49086001205B493E
:101C8000086001205749086001205749086000207A
:101C900056490860032056490870002055490860DD
:101CA00001205449086001205049086001204D4935
:101CB000086001204C49086000204C490860002061
:101CC0004B49087000204B490860012049490860D1
:101CD000012046490860012042490860012042492C
:101CE00008600020414908608220414908700020B6
:101CF0004049086001203F49086001203B490860D5
:101D00000120384908600020374908600020374921
:101D100008602B20364908700020364908600120F1
:101D20003449086001203149086001202D490860CC
:101D300001202D49086000202C49086000202C4912
:101D4000087000202B49086001202A490860012002
:101D500026490860012023490860012022490860C3
:101D600000202249086002202149087000202149F2
:101D7000086001201F49086001201C4908600120FB
:101D800018490860012018490860002017490860B8
:101D900000201749087000201649086001201549E5
:101DA000086001201149086001200E4908600120E7
:101DB0000D49086000200D49086081200C49087019
:101DC00000200C49086001200A49086001200749E9
:101DD0000860802094490880802094490880FFE7AB
:101DE00010BD00002810FE433010FE432C10FE43AF
:101DF00080F00F402410FE4303B489480078C007E8
:101E00000AD5BDF80000C01CADF80000BDF8020006
:101E1000801CADF8020009E0BDF80000801CADF8A0
:101E20000000BDF80200C01CADF80200012080498E
:101E3000086000207F49086000207F4908602A2050
:101E40007E49087000207E49086001207C490860B6
:101E50000120794908600120754908600120754911
:101E60000860002074490860BDF8000080B2000AD4
:101E700072490870002072490860012070490860AA
:101E800001206D4908600120694908600120694905
:101E90000860002068490860BDF8000067490870C4
:101EA00000206749086001206549086001206249F7
:101EB000086001205E49086001205E49086000203A
:101EC0005D490860BDF80000BDF8041011FA80F00B
:101ED000401E00125949087000205949086001202D
:101EE00057490860012054490860012050490860A2
:101EF00001205049086000204F490860BDF80000EB
:101F0000BDF804100818401E4C49087000204C49C8
:101F1000086001204A490860012047490860012003
:101F20004349086000204349086000204249086096
:101F30002B20424908700020414908600120404997
:101F4000086001203C4908600120394908600120EF
:101F500038490860002038490860BDF8020080B2A6
:101F6000000A3649087000203549086001203449CC
:101F7000086001203049086001202D4908600120D7
:101F80002C49086000202C490860BDF802002B494C
:101F9000087000202A4908600120294908600120B2
:101FA0002549086001202249086001202149086074
:101FB000002021490860BDF80200BDF8061011FAA2
:101FC00080F0401E00121D49087000201C49086066
:101FD00001201B49086001201749086001201449AD
:101FE0000860012013490860002013490860BDF80B
:101FF0000200BDF806100818401E104908700020A5
:102000000F49086001200E49086001200A49086054
:1020100002B0704704480088704704480088704741
:10202000240CFF1F5CA70000200CFF1F220CFF1FC9
:102030002810FE433010FE432C10FE4380F00F406A
:102040002410FE4370B504000D0016004FF480719B
:102050002000C0B200F08AF86DB2002D11D14148C5
:10206000E4B2611150F821003E49E4B2621151F826
:1020700022104969012214F01F039A4091434161E3
:1020800036E03848E4B2611150F821003549E4B235
:10209000621151F822104969012214F01F039A407D
:1020A00011434161F6B2002E11D12E48E4B2611104
:1020B00050F821000068012114F01F02914088436C
:1020C0002849E4B2621151F82210086010E0254856
:1020D000E4B2611150F821000068012114F01F02E0
:1020E000914008431F49E4B2621151F82210086080
:1020F00070BD10B504001B48E4B2611150F8210016
:10210000406914F01F01C840C00703D47B21164862
:1021100000F0CBF81348E4B2611150F8210001211E
:1021200014F01F029140C16010BD10B504000D48AD
:10213000E4B2611150F82100406914F01F01C84059
:10214000C00703D58C21084800F0AFF80548E4B279
:10215000611150F82100006914F01F01C84010F00F
:10216000010010BD380BFF1F38A9000010B4294A28
:1021700012684FF40073C0B24409A3401A43254BC0
:102180001A60254AC0B2431152F82320012310F0EF
:102190001F04A340C2F8A0301F4AC0B2431152F836
:1021A0002320C0B210F01F0342F8231010BC704768
:1021B00010B4184A12684FF40073C0B24409A34027
:1021C0001A43144B1A60144AC0B2431152F8232028
:1021D000012310F01F04A340C2F8A03031F4E061E5
:1021E0000D4AC0B2431152F82320C0B210F01F03B1
:1021F00052F8232012F4E0621143074AC0B243119F
:1022000052F82320C0B210F01F0342F8231010BC74
:102210007047000038800440A80BFF1F10B5040071
:10222000002C15D0B4F1807F03D329210F4800F092
:102230003CF800200E4908600E48046000200E495A
:10224000086005200A49086009480068C003FBD5FA
:1022500010BD10B504002000441E002804D007481B
:102260000068FFF7DBFFF6E710BD000020A80000C4
:1022700010E000E014E000E018E000E04817FF1F65
:10228000DFF800F0090DFF1FDFF800F02D0DFF1F34
:10229000BFF34F8F4648006810F4E060454908439B
:1022A00043490860BFF34F8FFEE738B504000D00C7
:1022B000002000F08DF82A0021003F4800F0C0F80F
:1022C000002000F0A2F84FF47A70FFF7C2FFF2E7A7
:1022D00038B504000D00210049B2052000F023FAB2
:1022E000200032BD10B50024042000F04DFA042077
:1022F00000F080FA002841D1002000F069F80420A5
:1023000000F078FA012801D101200400002000F03B
:102310007CF82A4800F094F84FF4FA70FFF799FF20
:10232000E4B2012CEBD1042000F064FA0028E6D1DD
:10233000042000F05FFA002806D1002000F065F8C4
:102340006420FFF786FFF3E7042000F053FA01282A
:1023500006D1002000F059F83220FFF77AFFF3E7AA
:10236000174800F06DF8FFF78BFF6420FFF771FF4F
:102370000020FFF789FFFFF78BFFC0E710BD10B506
:1023800010480468012000F023F8012000F03DF817
:102390000D48E4B20F2101FB0402E4B221000B4816
:1023A00000F04EF84FF47A70FFF753FFEDE70000AE
:1023B0000CED00E00400FA0508AB000070AC000072
:1023C00084AB000004ED00E02004FF1FA4AA00007D
:1023D00010B5040064B2042C07DA01220121174869
:1023E00064B2205CFFF72EFE0EE004200400200003
:1023F000441E40B2002807D0012201210F4864B2D8
:10240000205CFFF71FFEF2E710BD10B5040064B2B8
:10241000042C05DA094864B2205CFFF76AFE0CE080
:10242000042004002000441E40B2002805D00348C8
:1024300064B2205CFFF75DFEF4E710BD280CFF1FBF
:102440000EB400B582B003A90091024600AB012191
:10245000034878440A3000F0E5F906BC5DF810FB4B
:10246000ED870000012110F01F029140DFF8FC22EF
:1024700040B2430942F8231070472DE9F8430400A5
:102480000D0064B2002C08D0022C2CD018D3042CE0
:102490004FD03BD3052C5FD071E0DFF8D402006849
:1024A00050F48060DFF8C81208604FF44071662075
:1024B000FFF75CFE4FF440716720FFF757FE5EE0C8
:1024C000DFF8AC02006850F40060DFF8A412086086
:1024D0004FF440714320FFF749FE4FF44071442010
:1024E000FFF744FE4BE0DFF88802006850F48050AC
:1024F000DFF87C1208604FF440716320FFF736FE6E
:102500004FF440716220FFF731FE38E0DFF86002DF
:10251000006850F40050DFF8581208604FF4407122
:102520005020FFF723FE4FF440715120FFF71EFEAD
:1025300025E0DFF84002006850F48060DFF83412D4
:1025400008604FF440714E20FFF710FE4FF44071C9
:102550004F20FFF70BFE12E0DFF81802006850F47E
:102560000060DFF8101208604FF440718920FFF717
:10257000FDFD4FF440718820FFF7F8FDFFE7DFF81D
:10258000F80164B250F82400C07810F0F300DFF8CE
:10259000E81164B251F82410C870DFF8DC0164B2AD
:1025A00050F824008078DFF8D01164B251F824107C
:1025B000887064B2002C02D064B2012C07D1DFF81D
:1025C000BC0100684FF47A714843814606E0DFF8A9
:1025D000B00100684FF47A71484381462801B9FB85
:1025E000F0F00600B6B2B6F5005F02DB41F6FF7010
:1025F0000600B9FBF5F0B6B2B0EB06100700BFB2AB
:10260000202F03DBDC215F48FFF74FFE5A4864B2FE
:1026100050F82400007810F0E0008046B6B2300A8E
:1026200010F01F0050EA0800534964B251F824101A
:102630000870514864B250F8240046704E4864B2A5
:1026400050F82400807A10F0E000804617F01F0058
:1026500050EA0800484964B251F82410887246488C
:1026600064B250F82400007C50F08800424964B203
:1026700051F824100874404864B250F82400C0781F
:1026800050F00C003C4964B251F82410C870BDE809
:10269000F1830200384852B250F82200807D0028B1
:1026A0000FD0354852B250F82200007910F02000C7
:1026B000314852B250F8220090F90700087001200A
:1026C00002E000200870002070472DE9F04104006E
:1026D0000D0016005FF000080020070042F21070A5
:1026E00087421AD218EB0501200040B2FFF7D1FF54
:1026F000002810D00020070018F90500002801D19B
:1027000040460EE018F10108B045EBD3002008F870
:102710000500404605E07F1CE0E7002008F80500C2
:102720004046BDE8F081144A40B252F820201279A8
:102730001206F8D5104A40B252F82020D1717047E5
:1027400010B504000C4864B250F82400C07850F072
:102750002000094964B251F82410C87064B26000C6
:102760002D3040B2FFF77EFE10BD000000E100E01A
:102770003480044028800440BC0BFF1F4817FF1F13
:102780005017FF1FF0A9000010B5040064B2082C18
:102790000DDA00220021224864B2205CFFF752FCCF
:1027A00003211F4864B2205CFFF702FD14E00820FB
:1027B00004002000441E40B200280DD00022002159
:1027C000174864B2205CFFF73DFC0321144864B253
:1027D000205CFFF7EDFCECE710BD10B504001048DD
:1027E00064B2205CFFF7A1FC002801D1002000E0CA
:1027F000012010BD10B50400200040B2FFF7EDFF2E
:1028000000280AD10A20FFF724FD200040B2FFF77C
:10281000E4FF002801D1002000E0012010BD0000ED
:10282000180CFF1F2DE9F04FA1B08246002017467B
:102830001D4602910B900DF1440B6FF000490AE028
:1028400017F8011B0298D0470290002800F0A382DD
:102850000B98401C0B90387808B90B989DE22528FE
:10286000EED10020059006900790089009900A90FC
:1028700001E040F0010017F8011F2029F9D02329B9
:102880000DD02B2904D02D2906D030290AD00CE0F8
:1028900040F0020080B2EEE740F00400FAE740F0BA
:1028A0000800F7E740F01000F4E72A290ED1296864
:1028B000296051F8042B29600D92002A04D5514259
:1028C00040F004000D9180B27F1C11E000210D91B9
:1028D00009E00D99494505D001EB810302EB430165
:1028E00030390D917F1C3A78A2F130010A29F0D3DA
:1028F00039782E2903D04FF0FF310C911DE017F8E5
:10290000011F2A2907D1296829607F1C51F8042B4F
:1029100029600C9211E000210C9109E00C994945C5
:1029200005D001EB810302EB430130390C917F1C90
:102930003A78A2F130010A29F0D3ADF838000FF649
:10294000B820397800F076FD08B117F8010B8DF842
:102950003A009DF83A00682802BF39786829622059
:1029600005D06C2804BF38786C2803D171208DF80D
:102970003A007F1C11A8049017F8014BB4F1250010
:1029800024D02038022840F2C680133800F0EC80B2
:102990000B3800F05081401E00F02581401E0228B7
:1029A00040F2B980001F00F01E81401F00F08480BB
:1029B000401E00F0D980401E29D0C01E0CD0801EC1
:1029C00000F0D280C01E00F0CF803EE101200590D3
:1029D00025208DF8440044E12868286050F8044B15
:1029E00028600394DDF83080B8F1000F04D520464C
:1029F00000F030FD804607E042460021204600F00E
:102A000045FD08B1A0EB0408CDF8188029E129683C
:102A100029604FF03C0851F8040B29600021CDE9F2
:102A2000000111A80390DDE90001049C11B908B967
:102A30000C9ACAB10206120FA0EB02123032A8F1B2
:102A4000010ED2B2F0463A2AA8BF273200090EF88A
:102A5000042040EA0170090908BF002804D0039A45
:102A600008EB04039A42E5D308EB04000390C8F195
:102A70003C010C980691814209DA401A08904FF601
:102A8000EF71BDF838000840ADF83800E9E00028E3
:102A900040F1E7809DF8380000F01400102840F065
:102AA000E0800D98059A801A089A801A401A012829
:102AB000C0F2D7800890D4E09DF83A0062281AD07E
:102AC000682806D06A280CD06C281CD0712808D041
:102AD00019E02868286050F8041B28600B980880CB
:102AE000BFE02868286050F8042B28600B98C117B5
:102AF000C2E90001B5E02868286050F8041B28608E
:102B00000B980870ADE02868286050F8041B286016
:102B10000B980860A5E02868C01D20F007022A6015
:102B2000D2E9000108322A60CDE90001002903D56D
:102B3000012005902D200CE0BDF83800810703D559
:102B4000012005902B2004E0C00704D5012005904A
:102B500020208DF84400059911A8081803902146FB
:102B600000A800F0D7F97CE09DF83A206C2A0DD03F
:102B7000712A18BF6A2A09D12868C01D20F00703EE
:102B80002B60D3E9000108332B6005E02968296038
:102B900051F8040B29600021CDE90001682A08BF23
:102BA00080B207D0622A08BFC0B203D0742A18BF0F
:102BB0007A2A02D10021CDE900019DF838000007F2
:102BC00030D5DDE90001002908BF00282AD044F0F3
:102BD0002000782826D130208DF844008BF8014061
:102BE000022005901EE029469DF83A0000F0D8F832
:102BF000CDE90001002904DA0598411C05912D2139
:102C00000EE0BDF83800810704D50598411C0591F8
:102C10002B2105E0C00705D50598411C0591202111
:102C200000F80B10059911A808180390214600A878
:102C300000F0EDF815E0012005902868286050F8B4
:102C4000041B28608DF844100BE00120059025201E
:102C50008DF84400002C04D00598411C059100F823
:102C60000B400D980599401A0899401A0699401A88
:102C70000999401A0799401A0A99A0EB01089DF892
:102C8000380040070FD420208DF84000002408E0D1
:102C9000012310AA00A9504600F097FB00287AD122
:102CA000641C4445F4DB059C11AE0AE016F8011BD8
:102CB0000298D047029000286DD00B98401C0B90D2
:102CC000641E002CF2D130208DF840000026089CB4
:102CD00008E0012310AA00A9504600F076FB002866
:102CE00059D1761CA642F4DB069C039E0AE016F836
:102CF000011B0298D047029000284CD00B98401C32
:102D00000B90641E002CF2D130208DF8400000267C
:102D1000099C07E0012310AA00A9504600F055FBCA
:102D2000C8BB761CA642F5DB03980699079C0E18D3
:102D300009E016F8011B0298D047029058B30B988F
:102D4000401C0B90641E002CF3D130208DF8400005
:102D500000260A9C07E0012310AA00A9504600F0B3
:102D600034FBC0B9761CA642F5DB9DF8380040075D
:102D70007FF571AD20208DF84000002400E0641C38
:102D80004445BFF668AD012310AA00A9504600F0E3
:102D90001CFB0028F3D04FF0FF3021B0BDE8F08FCE
:102DA000622826D068281DD06A2808D06C2827D031
:102DB000712804D0742823D07A280CD020E0086829
:102DC000C01D20F007000860D0E90023083008602B
:102DD0001946104670470A680A6052F8040B0A60E8
:102DE000002170470A680A6052F8040B0A6000B2BA
:102DF0000BE00A680A6052F8040B0A6040B204E073
:102E00000A680A6052F8040B0A60C11770472DE97E
:102E1000FA4E05460A462F696F2A08BF082405D0D6
:102E200041F02000782814BF0A241024D5E90001BD
:102E30003C2681468A46642A18BF692A05D10029A2
:102E400003DAD9F100096AEB4A0ABAF1000F08BFA8
:102E5000B9F1000F0CD1286B50B9082C36D195F878
:102E60003800000732D530203B2687F83B002DE0A4
:102E7000E31748465146224600F034FBA4FB0023EA
:102E8000A9EB02023032A6F1010BD2B25E463A2A19
:102E900003DB9DF80030513B9A180BF80720814660
:102EA0005FEA010A08BFB9F1000F03D0E868F11921
:102EB0008842DDD3082C09D195F83800000705D5E4
:102EC000F05D302802D0761E3020F055C6F13C006F
:102ED000A861F119E960296B884208DA081A2862AA
:102EE0004FF6EF71288F08402887BDE8F38E002940
:102EF0000ED595F8381001F01401102908D1696B2E
:102F00006A69891A2A6A891A081A0128A8BF2862D8
:102F1000BDE8F38E2DE9F34F8BB0D0E90089006B4B
:102F200001AF002848BF062005D404BF41F02000AF
:102F3000672802D101200B99086340F2FF720B98B9
:102F40004168C1F30A50904220D1080302BF0B9898
:102F5000006800280AD10B99032088619DF8300091
:102F600061381A2858D30FF2A44109E00B990320C5
:102F700088619DF8300061381A284AD30FF28441E5
:102F80000B98C068032200F025FB00E1012807DA56
:102F90000B9800F05AFB012802DB00230026EDE02D
:102FA0000B9A526840F2FE3161F31E520B994A604F
:102FB00040F2FE31461A404649460022002300F006
:102FC00065FB38BF89F0004936B247F2975070432D
:102FD0004949DFF828B190FBF1F636B2C6F1070790
:102FE0009246012F1BDBF80707D552465B46404649
:102FF000494600F063FB804689467F10504659469B
:1030000052465B4600F05AFB82468B46002FEAD1BF
:1030100026E00FF2EC31B3E70FF2EC31B0E77F427C
:103020000024374D12E0F80707D552465B4620468C
:10303000294600F043FB04460D467F105046594692
:1030400052465B4600F03AFB82468B46002FEAD19F
:103050004046494622462B4600F002FC80468946FF
:103060009DF8300040F02005662D0CBF06F10A00E7
:1030700006200B99096B4718142FA8BF132730207F
:103080008DF804000DF10504DFF878B0012F3BDB6B
:103090004046494600F008FD014604F108020423B9
:1030A0004FF00A0CB1FBFCFC0CEB8C04A1EB4401CF
:1030B000303102F8011D0A21BCFBF1FE0EEB8E043B
:1030C000ACEB44043034714602F8014D5B1EE7D18D
:1030D000083F02F10804012FD8DB00F0FBFC024698
:1030E0000B464046494600F003FD00225B4600F0D7
:1030F000E5FA80468946CBE7A0860100000024401F
:103100000000F03F84D797410DF10500201A0DF122
:10311000050702E0401E761E7F1C39783029F9D061
:10312000662D02D136B2711C03E0652D0CBF012162
:1031300000210B9A126B8B181BB29842B8BF034642
:103140001BB219001AD4814204DAC85D3528A8BF21
:10315000392000DA3020CA19521E00E05B1E12F836
:103160000159491E8542F9D0392802D1C85D401C59
:10317000C855002902D57F1E5B1C761C36B29DF80F
:1031800030100B9800961BB23A4600F003F80DB0D1
:10319000BDE8F08F2DE9F04786B006468A46904696
:1031A0001D4600F082FD406A376B90F80090012DBB
:1031B00002DA01250FF258284AF02000BDF9384004
:1031C000662808BF641C13D0672840F0888014F17B
:1031D000040F73DBBC4271DA96F83800641C0007F8
:1031E00002D4BD42B8BF2F4624B23F1B48BF0027C0
:1031F000F068B16924B2012C21DA30234A1C0B5447
:10320000012F03DA96F83810090702D502F800906A
:10321000521CB261E742B8BF7C4224B26142E71956
:103220007162AF42B8BF3D462DB2F5612A46B3691F
:103230004146181800F0CEF9781BB062AEE00818CD
:10324000A54216DA2A46414600F0C4F9B169691868
:10325000B161601B7062012F03DA96F83800000735
:1032600005D5F06801F80090F069401CF061B76284
:1032700094E02246414600F0ADF9B06920182D1BBC
:10328000012F03DA96F83810090703D5F16800F822
:103290000190401C2DB2B061AF42B8BF3D46F0680E
:1032A000B3692DB22A4604EB0801181800F092F910
:1032B000B0692818B061781B70626FE0BD4204DA13
:1032C00096F83810090758BF2F467F1E48BF0027C1
:1032D000BAF1670F0CBF4FF0650A4FF0450AB169AC
:1032E000F06818F8013B0B544A1C012F05DA96F8D8
:1032F0003810090758BFB26115D502F80090531C69
:10330000B361012F0FDB6D1E2DB2AF42B8BF3D463A
:103310002DB22A464146181800F05CF9B069281809
:10332000B061781B7062F068B16901EB00082000A1
:1033300008F801AB03D42B2008F8010B03E02D2182
:1033400008F8011B6442002502AF08E00A2200A829
:1033500000F0C4FC019807F8010B6D1C009C21B221
:103360000129F3DA022D06DA4AF02000652804BFAD
:10337000302008F8010B4DB9302008F8010B07E0A8
:103380006D1E02A8285C303008F8010B012DF7DA19
:10339000F068B1690818A8EB0000F06196F83800F1
:1033A00000F0140010280DD17069B1690818716A15
:1033B0000818F1690818B16A0818716B8842BCBF17
:1033C000081A306206B0BDE8F087F8B504460D462D
:1033D00016461F46002004E0E86A401CE8627F1E93
:1033E000002047B116F8011BA868A047A860002874
:1033F000F2D14FF0FF30F2BD686A6C747A4C000075
:103400006E616E004E414E00696E6600494E460088
:10341000300050F8041B61B150F8042BD30744BFAF
:10342000A9F101039A18002342F8043B091FFAD1BD
:10343000EFE770470278C9B28A421AB11CBF10F890
:10344000012FF9E718BF002070470268531C036082
:103450001170704700F10103810704D010F8011BBF
:1034600089B18107FAD10268B2F10131914311F0BB
:10347000803F04BF50F8042FF6E710F8011B11B18C
:1034800010F8011BFBE7C01A70470000C9B28307A0
:1034900006D0521E22D310F8013B9942F7D11FE00B
:1034A000083A13D302F1040241EA012141EA014141
:1034B00050F8043B121F21BF4B40A3F1013C2CEA02
:1034C000030C1CF0803FF3D0C9B2001F083210F883
:1034D000013B521E28BF91EA030FF8D818BF012004
:1034E000401E70471B4213D1094236D12AB184468F
:1034F000B0FBF2F002FB10C2704700F0F7BBFCD348
:103500000022002370470B000200002100207047BA
:10351000904271EB030CF6D370B5B1FA81F4B3FAB3
:1035200083F52C1BA340C4F1200532FA05F6334382
:10353000A2405FF00046E64002E05B085FEA32022C
:10354000841A71EB030524BF204629467641F4D343
:1035500002000B003000002170BD012ACFD970B5E8
:10356000140C20D0B1FA81F4B2FA82F5C4F120042F
:103570006419B4F12006D6D3B2405FF00044F440A1
:10358000002502E052085FEA3303C61A71EB020E0F
:1035900024BF3046714664416D41F3D302000B00F5
:1035A0002000290070BD0C46B1FBF2F102FB114571
:1035B0002D0445EA1045B5FBF2F402FB145580B228
:1035C00040EA0545B5FBF2F002FB105240EA044028
:1035D00070BD000062B38B0708D0521E11F8013B8A
:1035E00000F8013B00F024808B07F6D1830740F000
:1035F000208000BF103A07D330B4B1E83810103A39
:10360000A0E83810F9D230BC530724BFB1E8081045
:10361000A0E8081044BF51F8043B40F8043BD2072F
:1036200024BF31F8022B20F8022B44BF0B78037023
:103630007047083A07D3B1E80810083A40F8043B4D
:1036400040F804CBF7D25307E4E730B4436803F003
:10365000004201211B031B0B436004BF0368002BC6
:1036600008D10DE00368DD0F45EA440444605B00C7
:103670000360491E4468E302F4D523031B0B436037
:1036800043681A434260084630BC70474FF4001C40
:103690001CEB410F94BF1CEB430F09E041EA030C04
:1036A00050EA4C0C52EA0C0C03D2994208BF9042EB
:1036B000704714BF8B42824270470000B0B581EA68
:1036C000030C0CF0004C40F2FF7515EA11541DBFBD
:1036D00015EA1357AC42AF4239E0E41923EA4553E7
:1036E00043F48013C90241F0004141EA505EC70231
:1036F0001100A7FB020200284FF00000EEFB0120A2
:103700004FF00001E3FB072118BF42F0010240180F
:1037100000214941E3FB0E01A4F580640F0302D2AE
:1037200052004041494154F101046CDD470872F1F7
:10373000004250F1000051EB0451A1F580115CBF33
:1037400041EA0C01B0BD4CEA05510020B0BD05EACC
:103750001357AC4214BFAF4241E050EA410E1CBFC8
:1037600052EA430E02E061460020B0BD24423C44D0
:103770001BD15FEA070EF6D0090302BF0146002005
:10378000AEF1140EB1FA81F7AEEB070401FA07FEB1
:103790000C37C7F1200100FA07F7C8404EEA000EC7
:1037A00023EA455343F48013A2E733F00043B3FA0E
:1037B00083F704BFB2FA82FE77440B3FE41BB7F1F4
:1037C000200E2FBF02FA0EF3BB40C7F1200E22FAE3
:1037D0000EFE38BF43EA0E03BA40641C82E750EA8B
:1037E000410E14BF52EA430E6FF000014FF4001770
:1037F00017EB430F8ABF194617EB410FB5E74CEAA9
:1038000005510020B0BDD4F10104B4F120070FDA56
:10381000C4F12007520828BF42F0010210FA07F550
:1038200001FA07F7E1BF2A43E0403843E1400FE0E7
:10383000352C98DCC7F1200452EA400220FA07F246
:1038400018BF42F0010231FA07F0A1400A430021FB
:1038500072F1004250F1000051EB0C01B0BD0000CC
:10386000F0B540F2FF7581EA030C0CF0004C15EA4C
:1038700011541DBF15EA1357AC42AF42E5E0BC41FD
:10388000C1F31301C3F31303801A994143F4801366
:1038900004D2641E4000494180185941C90241EADE
:1038A0005051B1FBF3F603FB1611A2FB0675D7EBE3
:1038B000C020A94102D2761E80185941C90241EAAE
:1038C0005051B1FBF3FE03FB1E11A2FB0E75D7EBAB
:1038D000C020A94103D2AEF1010E801859418902DE
:1038E00041EA9051760546EA8E2EB1FBF3F603FBD2
:1038F0001611A2FB0675D7EB8020A94102D2761ED5
:1039000080185941C90241EA50514EEA060EB1FBF6
:10391000F3F603FB1611A2FB0675D7EBC020A941F5
:1039200002D2761E80185941C90241EA5051B1FBBA
:10393000F3F703FB1711A2FB0735D3EBC020A94116
:1039400067F100070CBF004247F0010766F3D52777
:103950004FEA1E31B80814F5806412DDBD0775F119
:10396000004250EB0E5051EB045111F5801F5CBF2B
:1039700041EA0C01F0BD4CF07F6141F0E0410020D4
:10398000F0BDBD076D0840EA0E5041F48011D4F13E
:103990000104B4F120060ADAC4F120060200E04076
:1039A00001FA06F3E1401843B24015430EE0342C0F
:1039B00013DCC6F1200445EA40056D0820FA06F242
:1039C000154321FA06F0A1400D43002175F1004294
:1039D00050F1000051EB0C01F0BD00205FEA0C013A
:1039E000F0BDCFB992185B41B3FA83F704BFB2FAC6
:1039F00082F6BF190B3FB7F120062FBF02FA06F37C
:103A0000BB40C7F1200622FA06F638BF3343BA405E
:103A10001CB1E419641E33E77F4231F00041B1FA72
:103A200081F404BFB0FA80F6A4190B3CB4F120066F
:103A30002FBF00FA06F1A140C4F1200620FA06F6D5
:103A400038BF3143A0403C1B1AE7AC421ABF05EA1D
:103A50001357AF4212E050EA41061CBF52EA430638
:103A6000BFE750EA4107304661461CBF41EA0551B5
:103A7000F0BD52EA430C08BFC143F0BD00204FF433
:103A8000001616EB410F98BF16EB430F08BF16EB5D
:103A9000410F24BFC14305E016EB430F0CBF614645
:103AA0004CEA0551F0BD0000400D40EAC12049003C
:103AB00080F00D8040F00040490DA1F58061491C67
:103AC00005D4D1F11F0154BFC840C01770474FF053
:103AD00000007047010000BF09D0B0FA80F18840B3
:103AE000C91CC1F58461090501EBD021400570476F
:103AF00070B44FF0004591EA030F44BF6B4000F0F3
:103B0000F7B800BF841A71EB030604D26E40001BA5
:103B1000B141121973414FF4001C1CEB410F34BF2B
:103B20007CEB430684E00C0DA4EB1356362E7DDCB3
:103B3000012E43DC45EAC32343EA525312BFD202AB
:103B400092025B08240545EAC12141EA5051D2EBBB
:103B5000C020994125D407D1B0FA80F610FA06F1B9
:103B600064D00020203608E0B1FA81F6B140C6F1F9
:103B7000200220FA02F21143B0404FEAF474B4EB91
:103B8000465434F001064FEA74040AD8D6F50016FC
:103B9000760D04F00044F04061FA06F25040F14026
:103BA0004840C00A40EA415021F0004128BF5FEA86
:103BB000500550F1000044EBD12137E045EAC32322
:103BC000DB0A45EAC121C90AB6F120050EDD42EA49
:103BD0000242120CC5F1200603FA06F6EB4042EA57
:103BE00006056D42984161F100010DE062FA06F5AB
:103BF000F240554063FA06FC82EA0C02F3405A4058
:103C00006D42904161EB030111F4801F05D1641EE8
:103C1000620502D06D004041494121F48011430802
:103C200075F1004350F1000041EB045170BC704746
:103C30001CEB410F15D223F0004352EA43060BD090
:103C40004FEA4C0CBCEB410F04D80C0D661E342E11
:103C5000B7DDEBE7801A994150EA410608BF002121
:103C6000E4E708BF1CEB430F28BF6FF00001DDE75E
:103C700080B5134800F0A6F80FF2480101604160DA
:103C80008160C1600161416181610FF23C02426269
:103C90008162C162016341630FF2300282630FF2FD
:103CA0003402C2630164416401BD10B5044800F0F0
:103CB00089F80446206808B9FFF7DAFF204610BDEE
:103CC000CC17FF1F000000002E00000066616C731F
:103CD00065000000747275650000000091FBF2F34E
:103CE00003FB1211C0E9003170470000704700006B
:103CF000841A71EB030603D2001BB1411219734100
:103D00004FF4001C1CEB410F34BF7CEB430443E039
:103D10000C0DA4EB1356352E50DC45EAC323DB0A09
:103D200045EAC121C912B6F120050DDD63FA05F699
:103D3000EB4086EA0305124218BF45F00105C018A2
:103D400051F100010CD213E062FA06F5F240554041
:103D5000F3415A40B340F3405A408018594107D3C9
:103D600049085FEA30005FEA350528BF45F00105E4
:103D700001F58011420875F1004250F1000041EB5D
:103D8000045170BC4FF4001C1CEB410F38BF70474E
:103D90000020090D090570471CEB410F10D252EAB3
:103DA00043060BD0BCEB410F05D80C0DAB43661E90
:103DB000342EB5DD02E0AB438018594170BC70472A
:103DC00070BC70477047000038B5FF240025032001
:103DD000FEF710FD002801D1032004000220FEF7A9
:103DE00009FD002801D1022004000020FEF702FD99
:103DF000002801D1002004000120FEF7FBFC002870
:103E000001D1012004000420FEF7F4FC002801D1B8
:103E1000042004000620FEF7EDFC002801D1062056
:103E200004000520FEF7E6FC002801D1052004006F
:103E30000720FEF7DFFC002801D107200400E4B2D0
:103E4000FF2C19D00020DFF8D81C0870200040B2E9
:103E5000FEF7C3FC002804D10120FEF7FAF96D1C1F
:103E6000F4E7ADB2B5F5967F03DD0220DFF8B01CB4
:103E700008702000C0B204E001F08EF801F0F7FBFA
:103E8000A5E732BD2DE9F04F93B01024FF250520A2
:103E9000ADF802000320ADF800004FF47840DFF8E1
:103EA000841CDFF8A02C127821F812004FF6FF7066
:103EB00001F090FD1E2012900020119002AE119A88
:103EC0001299300001F0C6FF0196DFF85C1C02A8D1
:103ED00001F0F4FFDFF84C0C03881F2202A90098C0
:103EE00001F0BAFEBDF8020050FA84F0ADF802000D
:103EF0001E20109000200F9002AE0F9A10993000F3
:103F000001F0A8FF0196DFF8241C02A801F0D6FFFB
:103F1000DFF8100C43881F2202A9009801F09CFED4
:103F2000BDF8020050FA84F0ADF802001E200E9099
:103F300000200D9002AE0D9A0E99300001F08AFF1C
:103F40000196DFF8EC1B02A801F0B8FFDFF8D40BF4
:103F500083881F2202A9009801F07EFEBDF80200AE
:103F600050FA84F0ADF802001E200C9000200B9057
:103F700002AE0B9A0C99300001F06CFF0196DFF84D
:103F8000B41B02A801F09AFFDFF8980BC3881F2228
:103F900002A9009801F060FEBDF8020050FA84F01A
:103FA000ADF802001E200A90002602AF32000A99E6
:103FB000380001F04FFF0197DFF87C1B02A801F0E9
:103FC0007DFFDFF8600B03891F2202A9009801F032
:103FD00043FEBDF8020050FA84F0ADF802001E273F
:103FE0005FF000080DF1080942463900484601F02B
:103FF00031FFCDF80490DFF8441B02A801F05EFF0A
:10400000DFF8200B43891F2202A9009801F024FE4B
:10401000BDF8020050FA84F0ADF802005FF01E090E
:104020005FF0000A0DF1080B52464946584601F070
:1040300011FFDFF80C1B02A801F040FFDFF8E40AD3
:1040400083891F2202A9009801F006FE4FF6FF7037
:10405000DFF8D01ADFF8EC2A127821F81200FFF707
:10406000B3FE0500EDB2032D11D1DFF8D80A0078B8
:10407000401EDFF8D01A0870DFF8C80A0078082858
:10408000FFF605AF0620DFF8BC1A0870FFE6EDB2B8
:10409000022D11D1DFF8AC0A0078401CDFF8A41A19
:1040A0000870DFF8A00A007807287FF4F0AE00203F
:1040B000DFF8901A0870EAE6EDB2012D0BD0EDB2F0
:1040C000052D7FF4E4AE0020DFF8781A0870002098
:1040D000DFF8D81A0870DFF86C0A0078002809D0D9
:1040E00002281DD00BD304283CD02AD3062843D065
:1040F0003DD345E0FF20DFF8B41A087040E0DFF858
:10410000B00A0078DFF8AC1A0870DFF8A40A40782B
:10411000DFF8A41A0870FF20DFF8901A08702FE06B
:10412000DFF88C0A8078DFF88C1A0870DFF8800AD4
:10413000C078DFF8841A0870FF20DFF8701A087062
:104140001EE0DFF86C0A0079DFF8681A0870DFF803
:10415000600A4079DFF8601A0870FF20DFF84C1A17
:1041600008700DE00120DFF8441A087008E0042010
:10417000DFF8381A087003E00320DFF8301A0870FF
:104180000020DFF8C019087013B0BDE8F08F2DE9EA
:10419000F04F91B016208DF80500DFF8640A006832
:1041A00000900520ADF802000320ADF800004FF4A8
:1041B0007840DFF87019DFF88C29127821F81200A6
:1041C0004FF6FF7001F006FC1E20079000200690BD
:1041D00008AC069A0799200001F03CFE0294DFF833
:1041E000241A08A801F06AFEDFF8380903881F22A4
:1041F00008A9009801F030FDBDF800006030ADF86E
:1042000000001E2005900020049008AC049A059937
:10421000200001F01FFE0294DFF898090278BFA188
:1042200008A801F04BFEDFF8FC08C3881F2208A98C
:10423000009801F011FDBDF802009DF8051050FA3C
:1042400081F0ADF802000320ADF800001E200390BD
:10425000002408AD22000399280001F0FBFD02951F
:10426000DFF8A41908A801F029FEDFF8B808438890
:104270001F2208A9009801F0EFFC6020ADF80000B3
:104280001E25002608AF32002900380001F0E2FDAB
:104290000297DFF824090278A0A108A801F00EFE19
:1042A000DFF8800803891F2208A9009801F0D4FCD8
:1042B000BDF802009DF8051050FA81F0ADF802003B
:1042C0000320ADF800001E275FF000080DF1200963
:1042D00042463900484601F0BDFDCDF80890DFF8B0
:1042E0002C1908A801F0EAFDDFF8380883881F229E
:1042F00008A9009801F0B0FC6020ADF800005FF064
:104300001E095FF0000A0DF1200B5246494658463F
:1043100001F0A0FDDFF8F808027880A108A801F0FC
:10432000CDFDDFF8000843891F2208A9009801F09D
:1043300093FC4FF6FF70DFF8EC17DFF808281278CF
:1043400021F81200FFF740FD8DF804009DF80400ED
:10435000022852D1DFF8EC070078032811DADFF8E1
:10436000E4070078401CDFF8DC170870DFF8D4079A
:10437000007803287FF415AF0020DFF8C817087015
:104380000FE7DFF8C0070078032807D1DFF824081B
:104390000078801EDFF81C18087002E7DFF8A40719
:1043A0000078042811D1DFF810080078801EDFF8AB
:1043B00008180870DFF800080078FB28FFF6F1AE57
:1043C0000020DFF8F4170870EBE6DFF878070078D4
:1043D00005287FF4E6AEDFF838080078801EDFF8A5
:1043E00030180870DFF828080078FB28FFF6D9AEEF
:1043F0000020DFF81C180870D3E69DF8040003289D
:1044000052D1DFF840070078032811DADFF83407CB
:104410000078401EDFF82C170870DFF828070078B6
:104420000528FFF6BEAE0220DFF818170870B8E6C0
:10443000DFF810070078032811D1DFF8780700783B
:10444000801CDFF870170870DFF868070078FB2819
:10445000FFF6A7AEFA20DFF85C170870A1E6DFF8D8
:10446000E4060078042807D1DFF84C070078801CA8
:10447000DFF84417087094E6DFF8C80600780528CE
:104480007FF48FAEDFF888070078801CDFF8801794
:104490000870DFF87C070078FB28FFF682AEFA2070
:1044A000DFF86C1708707CE69DF8040001280DD138
:1044B000DFF8900600780328BFF673AEDFF88406B5
:1044C0000078C01CDFF87C1608706AE69DF80400CE
:1044D000002812D1DFF86C060078032808DA0020E3
:1044E000DFF8601608700020DFF8C016087011E0D1
:1044F0000020DFF85016087053E69DF804000528E8
:104500007FF44FAE0020DFF83C1608700020DFF883
:104510009C16087011B0BDE8F08F00002564000003
:104520002DE9F04F9FB010240625DFF8E808006859
:1045300000900A20ADF802000320ADF800004FF40F
:104540007840DFF8E015DFF8CC26127821F8120069
:104550004FF6FF7001F03EFA1E201D9000201C90C7
:1045600003AE1C9A1D99300001F074FC0196DFF82F
:10457000A81803A801F0A2FCDFF8A80503881F22F1
:1045800003A9009801F068FB6020ADF800001E2030
:104590001B9000201A9003AE1A9A1B99300001F06C
:1045A00059FC0196DFF874080278D7A103A801F03E
:1045B00085FCDFF87005EDB230F815301F2203A935
:1045C000009801F049FBBDF8020050FA84F0ADF804
:1045D00002000320ADF800001E2019900020189062
:1045E00003AE189A1999300001F034FC0196DFF8F7
:1045F000301803A801F062FCDFF8280543881F2269
:1046000003A9009801F028FB6020ADF800001E20EF
:1046100017900020169003AE169A1799300001F0FB
:1046200019FC0196DFF8FC070278B7A103A801F096
:1046300045FCDFF8F004EDB210EB450043881F2283
:1046400003A9009801F008FBBDF8020050FA84F0BD
:10465000ADF802000320ADF800001E2015900020E8
:10466000149003AE149A1599300001F0F3FB0196F3
:10467000DFF8B41703A801F021FCDFF8A804838851
:104680001F2203A9009801F0E7FA6020ADF80000AE
:104690001E2013900020129003AE129A139930003E
:1046A00001F0D8FB0196DFF88407026896A103A801
:1046B00001F004FCDFF86C04EDB210EB45008388D8
:1046C0001F2203A9009801F0C7FABDF8020050FAB2
:1046D00084F0ADF802000320ADF800001E20119018
:1046E0000020109003AE109A1199300001F0B2FB37
:1046F0000196DFF83C1703A801F0E0FBDFF8240483
:10470000C3881F2203A9009801F0A6FA6020ADF823
:1047100000001E200F9000200E9003AE0E9A0F99FD
:10472000300001F097FB0196DFF80807026876A1D8
:1047300003A801F0C3FBDFF8EC03EDB210EB45007A
:10474000C3881F2203A9009801F086FABDF8020071
:1047500050FA84F0ADF802000320ADF800001E20EE
:104760000D9000200C9003AE0C9A0D99300001F0D2
:1047700071FB0196DFF8C01603A801F09FFBDFF87C
:10478000A40303891F2203A9009801F065FA6020A1
:10479000ADF800001E200B90002603AF32000B99ED
:1047A000380001F057FB0197DFF89006026856A128
:1047B00003A801F083FBDB48EDB210EB4500038951
:1047C0001F2203A9009801F047FABDF8020050FA31
:1047D00084F0ADF802000320ADF800001E275FF062
:1047E00000080DF10C0942463900484601F032FB41
:1047F000CDF80490DFF8481603A801F05FFBC94824
:1048000043891F2203A9009801F026FA6020ADF821
:1048100000005FF01E095FF0000A0DF10C0B52461C
:104820004946584601F016FBDFF81806026836A123
:1048300003A801F043FBBB48EDB210EB45004389F0
:104840001F2203A9009801F007FA4FF6FF70B5493F
:10485000DFF8C023127821F81200FFF7B5FA8DF8BF
:1048600008009DF80800022840F08D80DFF8A403BE
:104870000078EDB2A84212D2DFF898030078401C0D
:10488000DFF890130870DFF88C030078EDB2A842CF
:104890007FF44FAE0020DFF87C13087049E6DFF8A4
:1048A00074030078EDB2A84211D1DFF870050078EA
:1048B000401EDFF868150870DFF8600500780528ED
:1048C000BFF637AE3B20DFF85415087031E6DFF84D
:1048D00044030078EDB2691C884217D1DFF8440523
:1048E0000078401EDFF83C150870DFF838050078C6
:1048F00000287FF41EAEDFF824050078C01EDFF824
:104900002415087015E600BF25640000DFF80403D5
:104910000078EDB2A91C884207D1DFF810050068C5
:10492000401EDFF80815086003E6DFF8E8020078AB
:10493000EDB2E91C884207D1DFF8F8040068401E98
:10494000DFF8F0140860F4E5DFF8C8020078EDB293
:10495000291D884207D1DFF8E4040068401EDFF813
:10496000DC140860E5E5DFF8AC020078EDB2691D03
:1049700088427FF4DEADDFF8CC040068401EDFF82B
:10498000C4140860D5E59DF80800032840F08D8028
:10499000DFF880020078EDB2A84211D2DFF874028D
:1049A0000078401EDFF86C120870DFF868020078AB
:1049B0006528FFF6BEAD681EDFF858120870B8E52E
:1049C000DFF850020078EDB2A84211D1DFF84C04B4
:1049D0000078401CDFF844140870DFF840040078C9
:1049E0003C28FFF6A6AD0520DFF830140870A0E5DE
:1049F000DFF820020078EDB2691C884218D1DFF898
:104A000024040078401CDFF81C140870DFF80C0444
:104A10000078C01EDFF80C1409788842BFF689AD13
:104A2000DFF800040078C01CDFF8F013087080E5A0
:104A3000DFF8E0010078EDB2A91C884207D1DFF869
:104A4000EC030068401CDFF8E413086071E5DFF850
:104A5000C4010078EDB2E91C884207D1DFF8D40325
:104A60000068401CDFF8CC13086062E5DFF8A401A1
:104A70000078EDB2291D884207D1DFF8C003006835
:104A8000401CDFF8B813086053E5DFF888010078B0
:104A9000EDB2691D88427FF44CADDFF8A8030068D1
:104AA000401CDFF8A013086043E59DF808000128CA
:104AB00011D158480078EDB2A84205D25548007887
:104AC00028185449087034E500203849087000203F
:104AD0005049087020E09DF80800002811D14D4889
:104AE0000078EDB2A84206D20020304908700020BC
:104AF0004849087010E047480078401B4549087055
:104B000017E59DF8080005287FF413AD002027491C
:104B1000087000203F4908701FB0BDE8F08F00000A
:104B2000C217FF1FF40BFF1FACAC0000BCAC0000B1
:104B3000CCAC0000DCAC0000ECAC0000FCAC000035
:104B40000CAD0000C417FF1F38B5C44804683C20F2
:104B5000ADF802005020ADF80000C1480568012002
:104B6000C04908700020FDF745FE002817D0052039
:104B7000FDF740FE002812D000F00EFA4FF6FF724B
:104B80000099200000F0B6FE2B00B74A00992000E3
:104B900001F096F801F0ACF900F069FDE2E70020C1
:104BA000024908700020AF49087031BDC317FF1FCC
:104BB000E80BFF1FE40BFF1FE60BFF1F80B5AB48A0
:104BC0000078052816DAA9480078002806D00128C0
:104BD00007D0032808D0042809D0F0E7FFF752F9DE
:104BE000EDE7FFF7D4FAEAE7FFF79AFCE7E7FFF70C
:104BF000ABFFE4E74FF4784000F0ECFE01BD0000AD
:104C0000D0AD00001CAD00002CAD000038AD0000A0
:104C1000E50BFF1FC417FF1F2DE9F04F93B01024C1
:104C20009348006801900020FDF7E4FD002802D1C0
:104C30000020904908700120FDF7DCFD002802D11A
:104C400001208C4908708B480078002800F0DE8035
:104C50000520ADF806000320ADF804004FF6FF7004
:104C600000F0B8FE1E2011900020109002AD109AA6
:104C70001199280001F0EEF800957F48B0F9003056
:104C80007D48B0F902207D4902A801F017F94FF6DE
:104C9000FF731F2202A9019800F0DEFFBDF8060095
:104CA00050FA84F0ADF806001E200F9000200E9000
:104CB00002AD0E9A0F99280001F0CCF800957048CB
:104CC0000268704902A801F0F9F84FF6FF731F223D
:104CD00002A9019800F0C0FFBDF8060050FA84F068
:104CE000ADF806001E200D9000200C9002AD0C9A2D
:104CF0000D99280001F0AEF80095634802686349F9
:104D000002A801F0DBF84FF6FF731F2202A90198F9
:104D100000F0A2FFBDF8060050FA84F0ADF80600DE
:104D20001E200B9000200A9002AD0A9A0B992800D1
:104D300001F090F8009556480268564902A801F023
:104D4000BDF84FF6FF731F2202A9019800F084FFFF
:104D5000BDF8060050FA84F0ADF806001E250026C6
:104D600002AF32002900380001F074F800974A4978
:104D700002A801F0A3F84FF6FF731F2202A90198C1
:104D800000F06AFFBDF8060050FA84F0ADF80600A6
:104D90001E275FF000080DF1080942463900484619
:104DA00001F058F8CDF800902948036829480268B6
:104DB000294902A801F082F84FF6FF731F2202A9C9
:104DC000019800F049FFBDF8060050FA84F0ADF8F4
:104DD00006005FF01E095FF0000A0DF1080B524655
:104DE0004946584601F036F82C480078009017489C
:104DF0000378154802782A4902A801F05FF84FF6B7
:104E0000FF731F2202A9019800F026FF13B0BDE82E
:104E1000F08F0000D4AD000044AD0000F00BFF1F88
:104E200050AD0000F10BFF1F5CAD0000E415FF1F4B
:104E300068AD0000E815FF1F74AD0000EC15FF1F02
:104E400080AD0000F015FF1FB717FF1FB617FF1F3B
:104E5000EC16FF1FF016FF1FB0AD0000D8AD00002C
:104E6000DCAD0000C117FF1F7813FF1FC317FF1F22
:104E7000E0AD0000C517FF1F2C17FF1F8CAD000011
:104E80005413FF1FB8AD00004417FF1FC0AD000052
:104E90001412FF1FC8AD000098AD0000BC17FF1F23
:104EA00084AC0000012110F01F029140774A40B20B
:104EB000430942F823107047012110F01F0291406E
:104EC000734A40B2430942F82310704710B50400FA
:104ED0007048046000F081F80028FBD000F002F870
:104EE000002010BDE0B5012002904FF41670019033
:104EF000002000901B23674802686749002001F0EA
:104F0000BBF86648006840084000644908605720C4
:104F1000FFF7D2FF6248006850F001006049086066
:104F20000020FFF7BFFF5F491B20FDF71FF95E4917
:104F30001D20FDF71BF907BD80B55C4890F9000006
:104F4000042818D10320594908705720FFF7B4FFEF
:104F50005FF00060564908605048006850F001005A
:104F60004E4908605FF00060514908604948006898
:104F70005049086005E05720FFF79EFF02204B498B
:104F8000087001BD0120494908704548006850F08B
:104F9000010043490860704780B504204349087008
:104FA0005FF0FF30424908605720FFF77BFF3F4822
:104FB00090F9000001280FD03C4890F90000022829
:104FC000F5D10420394908705FF0FF303849086096
:104FD0005720FFF767FFEAE701BD10B582B0002454
:104FE00000208DF8000001F068F98021122001F006
:104FF00077FA002804D13048FDF722FA002043E078
:105000003220FDF726F90B22012100A801F0A0FAB9
:10501000002804D12948FDF713FA002034E09DF858
:1050200000102748FDF70CFA264801782648FDF7BE
:1050300007FA9DF80000212825D10020040021480E
:105040000078A4B280B2844218D22048A4B210EBF7
:10505000440041781D48A4B210F8140080B201F059
:105060003FFA002808D11948A4B210F814101848C3
:10507000FDF7E6F9002007E0641CE0E71548FDF7BE
:10508000DFF9012000E0002016BD000000E100E093
:1050900080E100E05417FF1F50F00F400C800040EB
:1050A0002480004002010200120109002C0CFF1FA5
:1050B000A0900440109000401CAC000098AC000090
:1050C0002CAB0000940CFF1FA4AB0000300CFF1FA2
:1050D00034AC000050AB0000012110F01F029140E1
:1050E000DFF8002740B2430942F82310704710B49C
:1050F00040B2002809D50A01DFF8EC3640B210F0C2
:105100000F04E31803F8042C04E00A01DFF8DC368E
:1051100040B2C25410BC704780B5DFF8D4060068B6
:10512000C00706D5DFF8CC060078002801D001F0D2
:1051300095FBDFF8BC06006850F00100DFF8B01600
:10514000086001BDDFF8B0060068C00703D5012084
:10515000DFF8A8160870DFF8A006006850F001001C
:10516000DFF894160860704780B5DFF89416552074
:1051700001F0B5FBDFF88C16562001F0B0FBDFF82C
:1051800088060068062101FB00F1012001F0BEFB4A
:10519000DFF874060068142101FB00F1022001F021
:1051A000B5FB02215520FFF7A2FF02215620FFF791
:1051B0009EFF01BD10B5040014F1440040B2FFF79A
:1051C0008BFF10BD80B5FFF7CFFF0220FFF7F2FF86
:1051D0000120FFF7EFFF01BD80B58121DFF82C062C
:1051E00001F0D2FB01280BD14321DFF8240601F0A6
:1051F000CBFB012804D10120DFF81816086003E07A
:105200000020DFF81016086001BD80B5DFF8080641
:10521000006800280FD0DFF814060068002807D4C3
:10522000DFF8080600684042DFF80016086016E064
:1052300002F056F813E0DFF8E405006800280ED00D
:10524000DFF8E8050068012807DADFF8E005006804
:105250004042DFF8D815086001E001F0E8FF01BD29
:1052600010B5262402F033FA052003F0ABF9DFF87D
:10527000C0050178052003F077F802F00EF9FFF77A
:10528000ABFF01F054FCDFF8A01508600A210520EF
:1052900001F0ADFBDFF89C1508601E21192001F01C
:1052A000A6FBDFF894150860DFF890050078002869
:1052B0000CD0DFF88C050068DFF888150968084312
:1052C000002803D102F0C6FA02F0E7F8DFF8700513
:1052D000006800280BD0DFF870050068002806D1B0
:1052E000DFF844050068844201DAFFF78EFFDFF83B
:1052F00050050068002813D0DFF84C05006800282E
:105300000ED1DFF824050068844209DBDFF81805B8
:10531000006801F04DFC002802D1FFF776FF01E0A4
:1053200001F0BAFE02F04FF803F07AFA02F021FA27
:1053300002F01CFCDFF808050068002800F09280ED
:10534000DFF804050068002840F08C800020DFF8BA
:10535000FC140870DFF8C004006800282CD0DFF8C7
:10536000C8040068844209DADFF8D0040078002815
:1053700004D1DFF8BC0400781F281DDADFF8A80488
:10538000006801F015FC002816D07FF02000DFF83F
:105390009C1408600120DFF8B81408600120DFF8D1
:1053A000B4140860DFF8940400780A2817DB0120A1
:1053B000DFF8A414086012E0DFF85C04006800283D
:1053C0000DD0DFF88C040068002808D00120DFF839
:1053D000841408607FF02000DFF850140860DFF8C4
:1053E0003C04006800282BD0DFF83C0400688442AD
:1053F00009DADFF848040078002804D1DFF8300427
:1054000000781F281CDADFF82004006801F0D0FBC8
:10541000002815D02120DFF8141408600120DFF8DF
:10542000301408600120DFF82C140860DFF80C0449
:1054300000780A2816DB0120DFF81C14086011E050
:10544000DFF8D803006800280CD0DFF804040068F7
:10545000002807D00120DFF8FC1308602120DFF8C6
:10546000CC130860DFF8F003006801281BD1DFF8D7
:10547000CC030078DFF8D01309680843002812D164
:105480000020DFF8C8130870DFF8D0030068401C64
:10549000DFF8C81308600020DFF8C013086001209F
:1054A000DFF8A4130860DFF8A003006800284AD0E2
:1054B0000020DFF8981308700020DFF898130860C8
:1054C0000020DFF88C13086001F0BAFBDFF89013BE
:1054D0000860DFF88C03006813281BDADFF8380354
:1054E0000068002809D07FF02000DFF84013086032
:1054F0000120DFF8701308600CE0DFF8200300687B
:10550000002807D02120DFF8241308600120DFF8ED
:1055100054130860DFF848030068212813DBDFF824
:1055200048030068401CDFF840130860DFF83803C8
:105530000068102803DB0020DFF82C13086001202E
:10554000DFF828130860DFF824030068002824D05F
:10555000DFF81003006800281FD0DFF80803006898
:1055600000281AD0DFF8D4020078002815D00120D6
:10557000B44908600020B5490870A74800680028B1
:1055800004D07FF02000A949086006E0A348006825
:10559000002802D02120A5490860AA4800680028F8
:1055A0002AD0B0480068002826D0A14800783228C8
:1055B00022DB0020A54908700020AC4908600020CB
:1055C000A04908600020A649086000209E490860A4
:1055D00000209549086000209E49086000209C49F1
:1055E000086000209F4908600020A1490860002051
:1055F000A049086001F06CFA8C48006803F0EFF9EC
:1056000003F032FA10BD00209B49088000209B491E
:10561000087000209A49087000209A4908700020FC
:10562000994908700020994908700020984908801D
:105630000020984908800020804908700020964981
:1056400008700020954908700020794908700020F2
:10565000934908700020934908700020924908700F
:10566000002092490870002091490870704710B5D9
:10567000FFF7C9FF002004003A2C1BD22820634901
:1056800021F814002820624921F8140000208949DB
:1056900060540020884960542820624921F8140091
:1056A00028205F4921F814000020844921F81400C3
:1056B000641CE1E7072004003A2C80F08C80072C62
:1056C00004D102F051FB7E49087027E0200080B22F
:1056D00002F085FC4D4830F81400524921F81400BE
:1056E0004B4830F814004E4921F814004D4830F86A
:1056F00014004B4931F81410401A724941F8240043
:10570000484830F81400464931F8141011FA80F076
:10571000022190FBF1F0694921F814004748007814
:10572000002810D15C48007808280CDB434804703E
:105730000B2C04D320000A383D49087002E00020F9
:105740003B49087047E05B48205C0A2108420BD0C7
:105750005848201810F8010C0A21084204D04F487C
:105760000078401C4D490870192C09D2494800881E
:1057700047490988884203D245480088454908803E
:105780003D480088002818D144480078042809DAE8
:105790001E4830F81400052804DB1D4830F81400BA
:1057A0004C280ADB22480078002806D10120324923
:1057B00008802000C01E1E490870392C09D11C48E1
:1057C0000078002805D135480078D0F13900184913
:1057D0000870641C70E701F026F9FFF741FD10BD69
:1057E0000000000000E100E018ED00E000E400E04F
:1057F0001C710340AE17FF1F2C710340AF17FF1F32
:1058000019510000455100005017FF1FCC0EFF1F1B
:10581000440FFF1FC80EFF1FF016FF1FEC16FF1FDF
:10582000AC10FF1F3410FF1F2813FF1F1412FF1F9F
:10583000B717FF1F1413FF1F1813FF1FB617FF1F03
:10584000F816FF1F2413FF1F0813FF1FB817FF1FB1
:105850002C13FF1F0C13FF1F1817FF1F1C13FF1F14
:105860001013FF1F1C17FF1F2013FF1F2017FF1F00
:105870002817FF1F2417FF1FA817FF1FB117FF1FAF
:10588000B217FF1FB317FF1FB017FF1FB517FF1F7A
:10589000AC17FF1FAA17FF1FBA17FF1FBB17FF1F69
:1058A000BD17FF1FBE17FF1FBC17FF1FC617FF1F27
:1058B000C717FF1F9C11FF1FD811FF1F2411FF1FC7
:1058C000B417FF1F1812FF1F10B582B0DFF85C0578
:1058D0000468FAF7A1FDFCF7A0FBADF80000FCF7A7
:1058E00099FBADF802004FF6FF720099200000F01E
:1058F00001F813BDF2B504001500FCF78EFBADF8FE
:105900000000FCF787FBADF8020000992000FCF7CF
:1059100073FABDF80000BDF80210484307000120EB
:10592000DFF80C1508600020DFF80815086000207B
:10593000DFF8041508602C20DFF80015087000203F
:10594000DFF8FC1408600120DFF8F414086001207F
:10595000DFF8E414086000200600BE4239D20120BE
:10596000DFF8CC1408600120DFF8C81408600020BC
:10597000DFF8C4140860ADB2280ADFF8C01408705C
:105980000020DFF8BC1408600120DFF8B4140860C0
:105990000120DFF8A41408600120DFF894140860E7
:1059A0000120DFF8901408600020DFF88C140860F4
:1059B000DFF8880405700020DFF8841408600120F7
:1059C000DFF87C1408600120DFF86C140860761C96
:1059D000C3E7F1BD38B50400DFF868040568FCF7DB
:1059E00019FBADF80200FCF718FBADF8000022002F
:1059F00092B200992800FFF77DFF31BD70B5040019
:105A00000D00DFF84404066831002000FCF7F4F9CB
:105A10000120DFF81C1408600020DFF8181408606B
:105A20000020DFF8141408602C20DFF81014087030
:105A30000020DFF80C1408600120DFF8041408606F
:105A40000120DFF8F41308600120DFF8E413086098
:105A50000120DFF8E01308600020DFF8DC130860A5
:105A6000ADB2280ADFF8D41308700020DFF8D01395
:105A700008600120DFF8C81308600120DFF8B813C0
:105A800008600120DFF8A81308600120DFF8A413E4
:105A900008600020DFF8A0130860DFF8A00305709D
:105AA0000020DFF89C1308600120DFF894130860E1
:105AB0000120DFF88413086070BD2DE9F14781B043
:105AC0000C0015001E00DFF88403D0F800A0FCF7DE
:105AD000A4FA0838BDF80410884206DBFCF79AFAED
:105AE0001038BDF80610884200DAB3E0514601983C
:105AF000FCF782F90120DFF8381308600020DFF896
:105B0000341308600020DFF8301308602C20DFF821
:105B10002C1308700020DFF8281308600120DFF83C
:105B2000201308600120DFF8101308600020814670
:105B30005FFA89F9B9F1100F80F28C80DFF8100359
:105B4000E4B2210151FA89F10818B0F5007000782B
:105B50000700002080465FFA88F8B8F1080F76DA6F
:105B6000380638D50120DFF8C81208600120DFF8B8
:105B7000C41208600020DFF8C0120860ADB2280A25
:105B8000DFF8B81208700020DFF8B41208600120B6
:105B9000DFF8AC1208600120DFF89C1208600120D9
:105BA000DFF88C1208600120DFF8881208600020FE
:105BB000DFF884120860DFF8840205700020DFF847
:105BC000801208600120DFF8781208600120DFF8F9
:105BD0006812086037E00120DFF8541208600120E5
:105BE000DFF8501208600020DFF84C120860B6B2EF
:105BF000300ADFF8481208700020DFF8441208600D
:105C00000120DFF83C1208600120DFF82C12086048
:105C10000120DFF81C1208600120DFF8181208606C
:105C20000020DFF814120860DFF810020670002070
:105C3000DFF80C1208600120DFF804120860012070
:105C4000DFF8F41108607F0018F1010883E719F10B
:105C500001096DE7BDE8F38771B581B00C0015004F
:105C60001E00207800282AD0FCF7D7F90838BDF8A4
:105C70000410884207DA0020ADF80400BDF80600E1
:105C80001030ADF80600FCF7C5F91038BDF8061065
:105C9000884205DA0020ADF806000020ADF80400C7
:105CA00033009BB22A0092B221780198FFF705FFDA
:105CB000BDF804000830ADF80400641CD1E773BDE2
:105CC0002DE9FB4F04009246D34601992000FCF7D2
:105CD00093F80120564908600020564908600020CA
:105CE000554908602C205549087000205449086027
:105CF00001205349086001204F4908600020804678
:105D0000BDF806001FFA88F8804580F08B801FFAE6
:105D100088F8BDF80A0000FB08F0BDF8061090FBFB
:105D2000F1F0ADF80000BDF80000BDF808104843E0
:105D3000060000200700BDF80400BFB287426ED203
:105D4000BFB2BDF8080000FB07F0BDF8041090FBDF
:105D5000F1F0814616FA89F00500E80810F80B000A
:105D6000012115F00702D2F10702914008422AD121
:105D700001202F49086001202E49086000202E498B
:105D80000860FF202D49087000202D49086001207F
:105D90002B49086001202849086001202449086037
:105DA000012024490860002023490860FF2023497E
:105DB0000870002022490860012021490860012064
:105DC0001D49086029E0012019490860012019498E
:105DD0000860002018490860002018490870002059
:105DE000174908600120164908600120124908601F
:105DF00001200F49086001200E49086000200E496B
:105E0000086000200D49087000200D49086001203D
:105E10000B4908600120084908607F1C8BE718F1D6
:105E200001086DE7BDE8F78F00000000E4AD000059
:105E30002810FE433010FE432C10FE4380F00F402C
:105E40002410FE43E8AD0000ECAD0000F0AD000012
:105E5000109A000062F30F2262F31F42401810F004
:105E6000030308D0C91A1FD3DB0748BF00F8012D70
:105E700028BF20F8022D130030B4144615461039FF
:105E800028BF20E93C00FAD8490728BF20E90C00C8
